{
  "contractName": "Crowdfunding2",
  "abi": [
    {
      "inputs": [],
      "stateMutability": "nonpayable",
      "type": "constructor"
    },
    {
      "inputs": [
        {
          "internalType": "uint256",
          "name": "",
          "type": "uint256"
        }
      ],
      "name": "activities",
      "outputs": [
        {
          "internalType": "uint256",
          "name": "id",
          "type": "uint256"
        },
        {
          "internalType": "address",
          "name": "beneficiary",
          "type": "address"
        },
        {
          "internalType": "string",
          "name": "title",
          "type": "string"
        },
        {
          "internalType": "string",
          "name": "desc",
          "type": "string"
        },
        {
          "internalType": "uint256",
          "name": "targetMoney",
          "type": "uint256"
        },
        {
          "internalType": "uint256",
          "name": "currentMoney",
          "type": "uint256"
        },
        {
          "internalType": "uint256",
          "name": "endTime",
          "type": "uint256"
        },
        {
          "internalType": "bool",
          "name": "closed",
          "type": "bool"
        }
      ],
      "stateMutability": "view",
      "type": "function"
    },
    {
      "inputs": [],
      "name": "activityId",
      "outputs": [
        {
          "internalType": "uint256",
          "name": "",
          "type": "uint256"
        }
      ],
      "stateMutability": "view",
      "type": "function"
    },
    {
      "inputs": [],
      "name": "author",
      "outputs": [
        {
          "internalType": "address",
          "name": "",
          "type": "address"
        }
      ],
      "stateMutability": "view",
      "type": "function"
    },
    {
      "inputs": [
        {
          "internalType": "address",
          "name": "",
          "type": "address"
        },
        {
          "internalType": "uint256",
          "name": "",
          "type": "uint256"
        }
      ],
      "name": "joinRecords",
      "outputs": [
        {
          "internalType": "uint256",
          "name": "ts",
          "type": "uint256"
        },
        {
          "internalType": "uint256",
          "name": "activityId",
          "type": "uint256"
        },
        {
          "internalType": "uint256",
          "name": "amount",
          "type": "uint256"
        }
      ],
      "stateMutability": "view",
      "type": "function"
    },
    {
      "inputs": [
        {
          "internalType": "uint256",
          "name": "targetMoney",
          "type": "uint256"
        },
        {
          "internalType": "uint256",
          "name": "dayNum",
          "type": "uint256"
        },
        {
          "internalType": "string",
          "name": "title",
          "type": "string"
        },
        {
          "internalType": "string",
          "name": "desc",
          "type": "string"
        }
      ],
      "name": "createActivity",
      "outputs": [],
      "stateMutability": "nonpayable",
      "type": "function"
    },
    {
      "inputs": [],
      "name": "getActivitieIDs",
      "outputs": [
        {
          "internalType": "uint256[]",
          "name": "",
          "type": "uint256[]"
        }
      ],
      "stateMutability": "view",
      "type": "function"
    },
    {
      "inputs": [
        {
          "internalType": "uint256",
          "name": "id",
          "type": "uint256"
        }
      ],
      "name": "getActivity",
      "outputs": [
        {
          "internalType": "bytes",
          "name": "",
          "type": "bytes"
        }
      ],
      "stateMutability": "view",
      "type": "function"
    },
    {
      "inputs": [
        {
          "internalType": "uint256",
          "name": "id",
          "type": "uint256"
        }
      ],
      "name": "readerJoin",
      "outputs": [],
      "stateMutability": "payable",
      "type": "function"
    },
    {
      "inputs": [],
      "name": "authorWithdraw",
      "outputs": [],
      "stateMutability": "nonpayable",
      "type": "function"
    },
    {
      "inputs": [],
      "name": "readerWithdraw",
      "outputs": [],
      "stateMutability": "nonpayable",
      "type": "function"
    },
    {
      "inputs": [],
      "name": "getJoinRecords",
      "outputs": [
        {
          "components": [
            {
              "internalType": "uint256",
              "name": "ts",
              "type": "uint256"
            },
            {
              "internalType": "uint256",
              "name": "activityId",
              "type": "uint256"
            },
            {
              "internalType": "uint256",
              "name": "amount",
              "type": "uint256"
            }
          ],
          "internalType": "struct JoinRecord[]",
          "name": "",
          "type": "tuple[]"
        }
      ],
      "stateMutability": "view",
      "type": "function"
    }
  ],
  "bytecode": "0x6080604052600060035534801561001557600080fd5b50336000806101000a81548173ffffffffffffffffffffffffffffffffffffffff021916908373ffffffffffffffffffffffffffffffffffffffff160217905550611d9f806100656000396000f3fe60806040526004361061009c5760003560e01c80638ec11438116100645780638ec1143814610191578063922635d8146101ad578063936d79d0146101ea57806393c6d5fe14610213578063a6c3e6b91461023e578063cc5abd43146102695761009c565b80630d1657e8146100a15780631b9bce05146100e557806356998531146101245780636e8ff28e1461014f5780638cd368f614610166575b600080fd5b3480156100ad57600080fd5b506100c860048036038101906100c39190610eb2565b610280565b6040516100dc989796959493929190610fda565b60405180910390f35b3480156100f157600080fd5b5061010c60048036038101906101079190611092565b610405565b60405161011b939291906110d2565b60405180910390f35b34801561013057600080fd5b5061013961044c565b6040516101469190611109565b60405180910390f35b34801561015b57600080fd5b50610164610452565b005b34801561017257600080fd5b5061017b610652565b6040516101889190611224565b60405180910390f35b6101ab60048036038101906101a69190610eb2565b61070c565b005b3480156101b957600080fd5b506101d460048036038101906101cf9190610eb2565b6109fd565b6040516101e1919061129b565b60405180910390f35b3480156101f657600080fd5b50610211600480360381019061020c91906113f2565b610a04565b005b34801561021f57600080fd5b50610228610b00565b6040516102359190611540565b60405180910390f35b34801561024a57600080fd5b50610253610ba5565b6040516102609190611562565b60405180910390f35b34801561027557600080fd5b5061027e610bc9565b005b60016020528060005260406000206000915090508060000154908060010160009054906101000a900473ffffffffffffffffffffffffffffffffffffffff16908060020180546102cf906115ac565b80601f01602080910402602001604051908101604052809291908181526020018280546102fb906115ac565b80156103485780601f1061031d57610100808354040283529160200191610348565b820191906000526020600020905b81548152906001019060200180831161032b57829003601f168201915b50505050509080600301805461035d906115ac565b80601f0160208091040260200160405190810160405280929190818152602001828054610389906115ac565b80156103d65780601f106103ab576101008083540402835291602001916103d6565b820191906000526020600020905b8154815290600101906020018083116103b957829003601f168201915b5050505050908060040154908060050154908060060154908060070160009054906101000a900460ff16905088565b6002602052816000526040600020818154811061042157600080fd5b9060005260206000209060030201600091509150508060000154908060010154908060020154905083565b60035481565b6000600160006003548152602001908152602001600020905060008160000154036104b2576040517f08c379a00000000000000000000000000000000000000000000000000000000081526004016104a990611629565b60405180910390fd5b600015158160070160009054906101000a900460ff1615151461050a576040517f08c379a000000000000000000000000000000000000000000000000000000000815260040161050190611695565b60405180910390fd5b3373ffffffffffffffffffffffffffffffffffffffff168160010160009054906101000a900473ffffffffffffffffffffffffffffffffffffffff1673ffffffffffffffffffffffffffffffffffffffff161461059c576040517f08c379a000000000000000000000000000000000000000000000000000000000815260040161059390611701565b60405180910390fd5b8060040154816005015410156105e7576040517f08c379a00000000000000000000000000000000000000000000000000000000081526004016105de90611793565b60405180910390fd5b60018160070160006101000a81548160ff0219169083151502179055503373ffffffffffffffffffffffffffffffffffffffff166108fc82600501549081150290604051600060405180830381858888f1935050505015801561064e573d6000803e3d6000fd5b5050565b6060600260003373ffffffffffffffffffffffffffffffffffffffff1673ffffffffffffffffffffffffffffffffffffffff168152602001908152602001600020805480602002602001604051908101604052809291908181526020016000905b8282101561070357838290600052602060002090600302016040518060600160405290816000820154815260200160018201548152602001600282015481525050815260200190600101906106b3565b50505050905090565b6000600160008381526020019081526020016000209050600081600001540361076a576040517f08c379a000000000000000000000000000000000000000000000000000000000815260040161076190611629565b60405180910390fd5b600015158160070160009054906101000a900460ff161515146107c2576040517f08c379a00000000000000000000000000000000000000000000000000000000081526004016107b990611695565b60405180910390fd5b42816006015411610808576040517f08c379a00000000000000000000000000000000000000000000000000000000081526004016107ff906117ff565b60405180910390fd5b6000341161084b576040517f08c379a00000000000000000000000000000000000000000000000000000000081526004016108429061186b565b60405180910390fd5b8060010160009054906101000a900473ffffffffffffffffffffffffffffffffffffffff1673ffffffffffffffffffffffffffffffffffffffff163373ffffffffffffffffffffffffffffffffffffffff16036108dd576040517f08c379a00000000000000000000000000000000000000000000000000000000081526004016108d4906118d7565b60405180910390fd5b348160080160003373ffffffffffffffffffffffffffffffffffffffff1673ffffffffffffffffffffffffffffffffffffffff168152602001908152602001600020600082825461092e9190611926565b92505081905550348160050160008282546109499190611926565b9250508190555060006040518060600160405280428152602001848152602001348152509050600260003373ffffffffffffffffffffffffffffffffffffffff1673ffffffffffffffffffffffffffffffffffffffff1681526020019081526020016000208190806001815401808255809150506001900390600052602060002090600302016000909190919091506000820151816000015560208201518160010155604082015181600201555050505050565b6060919050565b60036000815480929190610a179061195a565b9190505550600060016000600354815260200190815260200160002090506003548160000181905550338160010160006101000a81548173ffffffffffffffffffffffffffffffffffffffff021916908373ffffffffffffffffffffffffffffffffffffffff16021790555082816002019081610a949190611b4e565b5081816003019081610aa69190611b4e565b508481600401819055506201518084610abf9190611c20565b42610aca9190611926565b816006018190555060008160070160006101000a81548160ff021916908315150217905550600081600501819055505050505050565b6060600060035467ffffffffffffffff811115610b2057610b1f6112c7565b5b604051908082528060200260200182016040528015610b4e5781602001602082028036833780820191505090505b50905060005b600354811015610b9d57600181610b6b9190611926565b828281518110610b7e57610b7d611c62565b5b6020026020010181815250508080610b959061195a565b915050610b54565b508091505090565b60008054906101000a900473ffffffffffffffffffffffffffffffffffffffff1681565b600060016000600354815260200190815260200160002090506000816000015403610c29576040517f08c379a0000000000000000000000000000000000000000000000000000000008152600401610c2090611629565b60405180910390fd5b600015158160070160009054906101000a900460ff16151514610c81576040517f08c379a0000000000000000000000000000000000000000000000000000000008152600401610c7890611695565b60405180910390fd5b42816006015410610cc7576040517f08c379a0000000000000000000000000000000000000000000000000000000008152600401610cbe90611cdd565b60405180910390fd5b3373ffffffffffffffffffffffffffffffffffffffff168160010160009054906101000a900473ffffffffffffffffffffffffffffffffffffffff1673ffffffffffffffffffffffffffffffffffffffff1603610d59576040517f08c379a0000000000000000000000000000000000000000000000000000000008152600401610d50906118d7565b60405180910390fd5b60008160080160003373ffffffffffffffffffffffffffffffffffffffff1673ffffffffffffffffffffffffffffffffffffffff1681526020019081526020016000205411610ddd576040517f08c379a0000000000000000000000000000000000000000000000000000000008152600401610dd490611d49565b60405180910390fd5b3373ffffffffffffffffffffffffffffffffffffffff166108fc8260080160003373ffffffffffffffffffffffffffffffffffffffff1673ffffffffffffffffffffffffffffffffffffffff168152602001908152602001600020549081150290604051600060405180830381858888f19350505050158015610e64573d6000803e3d6000fd5b5050565b6000604051905090565b600080fd5b600080fd5b6000819050919050565b610e8f81610e7c565b8114610e9a57600080fd5b50565b600081359050610eac81610e86565b92915050565b600060208284031215610ec857610ec7610e72565b5b6000610ed684828501610e9d565b91505092915050565b610ee881610e7c565b82525050565b600073ffffffffffffffffffffffffffffffffffffffff82169050919050565b6000610f1982610eee565b9050919050565b610f2981610f0e565b82525050565b600081519050919050565b600082825260208201905092915050565b60005b83811015610f69578082015181840152602081019050610f4e565b60008484015250505050565b6000601f19601f8301169050919050565b6000610f9182610f2f565b610f9b8185610f3a565b9350610fab818560208601610f4b565b610fb481610f75565b840191505092915050565b60008115159050919050565b610fd481610fbf565b82525050565b600061010082019050610ff0600083018b610edf565b610ffd602083018a610f20565b818103604083015261100f8189610f86565b905081810360608301526110238188610f86565b90506110326080830187610edf565b61103f60a0830186610edf565b61104c60c0830185610edf565b61105960e0830184610fcb565b9998505050505050505050565b61106f81610f0e565b811461107a57600080fd5b50565b60008135905061108c81611066565b92915050565b600080604083850312156110a9576110a8610e72565b5b60006110b78582860161107d565b92505060206110c885828601610e9d565b9150509250929050565b60006060820190506110e76000830186610edf565b6110f46020830185610edf565b6111016040830184610edf565b949350505050565b600060208201905061111e6000830184610edf565b92915050565b600081519050919050565b600082825260208201905092915050565b6000819050602082019050919050565b61115981610e7c565b82525050565b6060820160008201516111756000850182611150565b5060208201516111886020850182611150565b50604082015161119b6040850182611150565b50505050565b60006111ad838361115f565b60608301905092915050565b6000602082019050919050565b60006111d182611124565b6111db818561112f565b93506111e683611140565b8060005b838110156112175781516111fe88826111a1565b9750611209836111b9565b9250506001810190506111ea565b5085935050505092915050565b6000602082019050818103600083015261123e81846111c6565b905092915050565b600081519050919050565b600082825260208201905092915050565b600061126d82611246565b6112778185611251565b9350611287818560208601610f4b565b61129081610f75565b840191505092915050565b600060208201905081810360008301526112b58184611262565b905092915050565b600080fd5b600080fd5b7f4e487b7100000000000000000000000000000000000000000000000000000000600052604160045260246000fd5b6112ff82610f75565b810181811067ffffffffffffffff8211171561131e5761131d6112c7565b5b80604052505050565b6000611331610e68565b905061133d82826112f6565b919050565b600067ffffffffffffffff82111561135d5761135c6112c7565b5b61136682610f75565b9050602081019050919050565b82818337600083830152505050565b600061139561139084611342565b611327565b9050828152602081018484840111156113b1576113b06112c2565b5b6113bc848285611373565b509392505050565b600082601f8301126113d9576113d86112bd565b5b81356113e9848260208601611382565b91505092915050565b6000806000806080858703121561140c5761140b610e72565b5b600061141a87828801610e9d565b945050602061142b87828801610e9d565b935050604085013567ffffffffffffffff81111561144c5761144b610e77565b5b611458878288016113c4565b925050606085013567ffffffffffffffff81111561147957611478610e77565b5b611485878288016113c4565b91505092959194509250565b600081519050919050565b600082825260208201905092915050565b6000819050602082019050919050565b60006114c98383611150565b60208301905092915050565b6000602082019050919050565b60006114ed82611491565b6114f7818561149c565b9350611502836114ad565b8060005b8381101561153357815161151a88826114bd565b9750611525836114d5565b925050600181019050611506565b5085935050505092915050565b6000602082019050818103600083015261155a81846114e2565b905092915050565b60006020820190506115776000830184610f20565b92915050565b7f4e487b7100000000000000000000000000000000000000000000000000000000600052602260045260246000fd5b600060028204905060018216806115c457607f821691505b6020821081036115d7576115d661157d565b5b50919050565b7f61206163746976697479206e6f74206578697374000000000000000000000000600082015250565b6000611613601483610f3a565b915061161e826115dd565b602082019050919050565b6000602082019050818103600083015261164281611606565b9050919050565b7f6120616374697669747920697320636c6f736564000000000000000000000000600082015250565b600061167f601483610f3a565b915061168a82611649565b602082019050919050565b600060208201905081810360008301526116ae81611672565b9050919050565b7f61206163746976697479206973206e6f7420617574686f720000000000000000600082015250565b60006116eb601883610f3a565b91506116f6826116b5565b602082019050919050565b6000602082019050818103600083015261171a816116de565b9050919050565b7f61206163746976697479206973206e6f7420726561636820746172676574206d60008201527f6f6e657900000000000000000000000000000000000000000000000000000000602082015250565b600061177d602483610f3a565b915061178882611721565b604082019050919050565b600060208201905081810360008301526117ac81611770565b9050919050565b7f6120616374697669747920697320657870697265640000000000000000000000600082015250565b60006117e9601583610f3a565b91506117f4826117b3565b602082019050919050565b60006020820190508181036000830152611818816117dc565b9050919050565b7f61206163746976697479206e656564206d6f6e65790000000000000000000000600082015250565b6000611855601583610f3a565b91506118608261181f565b602082019050919050565b6000602082019050818103600083015261188481611848565b9050919050565b7f6120616374697669747920697320617574686f72000000000000000000000000600082015250565b60006118c1601483610f3a565b91506118cc8261188b565b602082019050919050565b600060208201905081810360008301526118f0816118b4565b9050919050565b7f4e487b7100000000000000000000000000000000000000000000000000000000600052601160045260246000fd5b600061193182610e7c565b915061193c83610e7c565b9250828201905080821115611954576119536118f7565b5b92915050565b600061196582610e7c565b91507fffffffffffffffffffffffffffffffffffffffffffffffffffffffffffffffff8203611997576119966118f7565b5b600182019050919050565b60008190508160005260206000209050919050565b60006020601f8301049050919050565b600082821b905092915050565b600060088302611a047fffffffffffffffffffffffffffffffffffffffffffffffffffffffffffffffff826119c7565b611a0e86836119c7565b95508019841693508086168417925050509392505050565b6000819050919050565b6000611a4b611a46611a4184610e7c565b611a26565b610e7c565b9050919050565b6000819050919050565b611a6583611a30565b611a79611a7182611a52565b8484546119d4565b825550505050565b600090565b611a8e611a81565b611a99818484611a5c565b505050565b5b81811015611abd57611ab2600082611a86565b600181019050611a9f565b5050565b601f821115611b0257611ad3816119a2565b611adc846119b7565b81016020851015611aeb578190505b611aff611af7856119b7565b830182611a9e565b50505b505050565b600082821c905092915050565b6000611b2560001984600802611b07565b1980831691505092915050565b6000611b3e8383611b14565b9150826002028217905092915050565b611b5782610f2f565b67ffffffffffffffff811115611b7057611b6f6112c7565b5b611b7a82546115ac565b611b85828285611ac1565b600060209050601f831160018114611bb85760008415611ba6578287015190505b611bb08582611b32565b865550611c18565b601f198416611bc6866119a2565b60005b82811015611bee57848901518255600182019150602085019450602081019050611bc9565b86831015611c0b5784890151611c07601f891682611b14565b8355505b6001600288020188555050505b505050505050565b6000611c2b82610e7c565b9150611c3683610e7c565b9250828202611c4481610e7c565b91508282048414831517611c5b57611c5a6118f7565b5b5092915050565b7f4e487b7100000000000000000000000000000000000000000000000000000000600052603260045260246000fd5b7f61206163746976697479206973206e6f74206578706972656400000000000000600082015250565b6000611cc7601983610f3a565b9150611cd282611c91565b602082019050919050565b60006020820190508181036000830152611cf681611cba565b9050919050565b7f726561646572206e6f74206a6f696e6564000000000000000000000000000000600082015250565b6000611d33601183610f3a565b9150611d3e82611cfd565b602082019050919050565b60006020820190508181036000830152611d6281611d26565b905091905056fea2646970667358221220dd062e6e9a0f191178acd2d433a9c67c97b18fee64d26f6293c39979abfbf48e64736f6c63430008110033",
  "immutableReferences": {},
  "source": "// SPDX-License-Identifier: GPL-3.0\n\npragma solidity >=0.7.0 <0.9.0;\n\ninterface ICrowdfunding {\n    // \n    function createActivity(uint targetMoney, uint dayNum, string memory title, string memory desc) external;\n    // \n    function getActivities() external view returns (uint[] memory);\n    // \n    function getActivity(uint id) external view returns (uint, address, uint, uint, uint, bool, string memory, string memory);\n    // \n    function join(uint id) external payable;\n    // \n    function authorWithdraw() external;\n    // \n    function readerWithdraw() external;\n}\n\nstruct Activity {\n    uint id;\n    address beneficiary;     // , \n    string title;            // \n    string desc;             // \n    uint targetMoney; // , wei\n    uint currentMoney; // , wei\n    uint endTime; // \n    bool closed;  // \n    mapping(address => uint) joined; //  -> \n}\n\n// \nstruct JoinRecord {\n    uint ts;\n    uint activityId;\n    uint amount;\n}\n\ncontract Crowdfunding2 {\n    // \n    address public author;\n\n    // id => \n    mapping(uint => Activity) public activities;\n\n    // \n    mapping (address => JoinRecord[]) public joinRecords;\n\n    // id\n    uint public activityId = 0;\n\n    // \n    constructor() {\n        author = msg.sender;\n    }\n\n    // \n    function createActivity(uint targetMoney, uint dayNum, string memory title, string memory desc) external {\n        activityId++;\n        Activity storage newActivity = activities[activityId];\n        newActivity.id = activityId;\n        newActivity.beneficiary = msg.sender;\n        newActivity.title = title;\n        newActivity.desc = desc;\n        newActivity.targetMoney = targetMoney;\n        newActivity.endTime = block.timestamp + dayNum * 1 days;\n        newActivity.closed = false;\n        newActivity.currentMoney = 0;\n    }\n\n    // ID\n    function getActivitieIDs() external view returns (uint[] memory) {\n        uint[] memory ids = new uint[](activityId);\n        for (uint i = 0; i < activityId; i++) {\n            ids[i] = i + 1;\n        }\n        return ids;\n    }\n\n    // \n    function getActivity(uint id) external view returns (bytes memory) {\n        \n    }\n\n    // // \n    // function getActivities(uint[] memory ids) external view returns (Activity[] memory) {\n        \n    // }\n\n    // \n    function readerJoin(uint id) external payable {\n        Activity storage activity = activities[id];\n        require(activity.id != 0, \"a activity not exist\");\n        require(activity.closed == false, \"a activity is closed\");\n        require(activity.endTime > block.timestamp, \"a activity is expired\");\n        require(msg.value > 0, \"a activity need money\");\n        require(msg.sender != activity.beneficiary, \"a activity is author\");\n\n        activity.joined[msg.sender] += msg.value;\n        activity.currentMoney += msg.value;\n\n        // \n        JoinRecord memory record = JoinRecord(block.timestamp, id, msg.value);\n        joinRecords[msg.sender].push(record);\n    }\n\n    // \n    function authorWithdraw() external {\n        Activity storage activity = activities[activityId];\n        require(activity.id != 0, \"a activity not exist\");\n        require(activity.closed == false, \"a activity is closed\");\n        // require(activity.endTime < block.timestamp, \"a activity is not expired\");\n        require(activity.beneficiary == msg.sender, \"a activity is not author\");\n        require(activity.currentMoney >= activity.targetMoney, \"a activity is not reach target money\");\n        activity.closed = true;\n        payable(msg.sender).transfer(activity.currentMoney);\n    }\n\n    // \n    function readerWithdraw() external {\n        Activity storage activity = activities[activityId];\n        require(activity.id != 0, \"a activity not exist\");\n        require(activity.closed == false, \"a activity is closed\");\n        require(activity.endTime < block.timestamp, \"a activity is not expired\");\n        require(activity.beneficiary != msg.sender, \"a activity is author\");\n        require(activity.joined[msg.sender] > 0, \"reader not joined\");\n        payable(msg.sender).transfer(activity.joined[msg.sender]);\n    }\n    \n    // \n    function getJoinRecords() external view returns (JoinRecord[] memory) {\n        return joinRecords[msg.sender];\n    }\n\n}\n\n",
  "sourcePath": "/root/workspace/work2/cf_eth/contracts/Crowdfunding2.sol",
  "compiler": {
    "name": "solc",
    "version": "0.8.17+commit.8df45f5f.Emscripten.clang"
  },
  "schemaVersion": "3.4.11",
  "updatedAt": "2023-01-07T08:26:20.530Z",
  "devdoc": {
    "kind": "dev",
    "methods": {},
    "version": 1
  },
  "userdoc": {
    "kind": "user",
    "methods": {},
    "version": 1
  }
}