{
  "contractName": "Crowdfunding3",
  "abi": [
    {
      "inputs": [],
      "stateMutability": "nonpayable",
      "type": "constructor"
    },
    {
      "inputs": [
        {
          "internalType": "uint256",
          "name": "",
          "type": "uint256"
        }
      ],
      "name": "activities",
      "outputs": [
        {
          "internalType": "uint256",
          "name": "id",
          "type": "uint256"
        },
        {
          "internalType": "address",
          "name": "beneficiary",
          "type": "address"
        },
        {
          "internalType": "string",
          "name": "data",
          "type": "string"
        },
        {
          "internalType": "uint256",
          "name": "targetMoney",
          "type": "uint256"
        },
        {
          "internalType": "uint256",
          "name": "currentMoney",
          "type": "uint256"
        },
        {
          "internalType": "uint256",
          "name": "endTime",
          "type": "uint256"
        },
        {
          "internalType": "bool",
          "name": "closed",
          "type": "bool"
        },
        {
          "internalType": "uint256",
          "name": "joinRecordID",
          "type": "uint256"
        }
      ],
      "stateMutability": "view",
      "type": "function"
    },
    {
      "inputs": [],
      "name": "activityID",
      "outputs": [
        {
          "internalType": "uint256",
          "name": "",
          "type": "uint256"
        }
      ],
      "stateMutability": "view",
      "type": "function"
    },
    {
      "inputs": [],
      "name": "author",
      "outputs": [
        {
          "internalType": "address",
          "name": "",
          "type": "address"
        }
      ],
      "stateMutability": "view",
      "type": "function"
    },
    {
      "inputs": [
        {
          "internalType": "address",
          "name": "",
          "type": "address"
        },
        {
          "internalType": "uint256",
          "name": "",
          "type": "uint256"
        }
      ],
      "name": "personalActivitieRecords",
      "outputs": [
        {
          "internalType": "uint256",
          "name": "",
          "type": "uint256"
        }
      ],
      "stateMutability": "view",
      "type": "function"
    },
    {
      "inputs": [
        {
          "internalType": "address",
          "name": "",
          "type": "address"
        },
        {
          "internalType": "uint256",
          "name": "",
          "type": "uint256"
        }
      ],
      "name": "personalJoinRecords",
      "outputs": [
        {
          "internalType": "uint256",
          "name": "id",
          "type": "uint256"
        },
        {
          "internalType": "uint256",
          "name": "activityID",
          "type": "uint256"
        },
        {
          "internalType": "address",
          "name": "joiner",
          "type": "address"
        },
        {
          "internalType": "uint256",
          "name": "ts",
          "type": "uint256"
        },
        {
          "internalType": "uint256",
          "name": "amount",
          "type": "uint256"
        },
        {
          "internalType": "string",
          "name": "comment",
          "type": "string"
        }
      ],
      "stateMutability": "view",
      "type": "function"
    },
    {
      "inputs": [
        {
          "internalType": "uint256",
          "name": "targetMoney",
          "type": "uint256"
        },
        {
          "internalType": "uint256",
          "name": "dayNum",
          "type": "uint256"
        },
        {
          "internalType": "string",
          "name": "data",
          "type": "string"
        }
      ],
      "name": "createActivity",
      "outputs": [],
      "stateMutability": "nonpayable",
      "type": "function"
    },
    {
      "inputs": [],
      "name": "getActivitieIDs",
      "outputs": [
        {
          "internalType": "uint256[]",
          "name": "",
          "type": "uint256[]"
        }
      ],
      "stateMutability": "view",
      "type": "function"
    },
    {
      "inputs": [
        {
          "internalType": "uint256",
          "name": "id",
          "type": "uint256"
        }
      ],
      "name": "getActivity",
      "outputs": [
        {
          "components": [
            {
              "internalType": "uint256",
              "name": "id",
              "type": "uint256"
            },
            {
              "internalType": "address",
              "name": "beneficiary",
              "type": "address"
            },
            {
              "internalType": "string",
              "name": "data",
              "type": "string"
            },
            {
              "internalType": "uint256",
              "name": "targetMoney",
              "type": "uint256"
            },
            {
              "internalType": "uint256",
              "name": "currentMoney",
              "type": "uint256"
            },
            {
              "internalType": "uint256",
              "name": "endTime",
              "type": "uint256"
            },
            {
              "internalType": "bool",
              "name": "closed",
              "type": "bool"
            },
            {
              "internalType": "uint256",
              "name": "joinRecordID",
              "type": "uint256"
            },
            {
              "components": [
                {
                  "internalType": "uint256",
                  "name": "id",
                  "type": "uint256"
                },
                {
                  "internalType": "uint256",
                  "name": "activityID",
                  "type": "uint256"
                },
                {
                  "internalType": "address",
                  "name": "joiner",
                  "type": "address"
                },
                {
                  "internalType": "uint256",
                  "name": "ts",
                  "type": "uint256"
                },
                {
                  "internalType": "uint256",
                  "name": "amount",
                  "type": "uint256"
                },
                {
                  "internalType": "string",
                  "name": "comment",
                  "type": "string"
                }
              ],
              "internalType": "struct JoinRecord[]",
              "name": "joinRecords",
              "type": "tuple[]"
            }
          ],
          "internalType": "struct Activity",
          "name": "",
          "type": "tuple"
        }
      ],
      "stateMutability": "view",
      "type": "function"
    },
    {
      "inputs": [
        {
          "internalType": "uint256[]",
          "name": "ids",
          "type": "uint256[]"
        }
      ],
      "name": "getActivities",
      "outputs": [
        {
          "components": [
            {
              "internalType": "uint256",
              "name": "id",
              "type": "uint256"
            },
            {
              "internalType": "address",
              "name": "beneficiary",
              "type": "address"
            },
            {
              "internalType": "string",
              "name": "data",
              "type": "string"
            },
            {
              "internalType": "uint256",
              "name": "targetMoney",
              "type": "uint256"
            },
            {
              "internalType": "uint256",
              "name": "currentMoney",
              "type": "uint256"
            },
            {
              "internalType": "uint256",
              "name": "endTime",
              "type": "uint256"
            },
            {
              "internalType": "bool",
              "name": "closed",
              "type": "bool"
            },
            {
              "internalType": "uint256",
              "name": "joinRecordID",
              "type": "uint256"
            },
            {
              "components": [
                {
                  "internalType": "uint256",
                  "name": "id",
                  "type": "uint256"
                },
                {
                  "internalType": "uint256",
                  "name": "activityID",
                  "type": "uint256"
                },
                {
                  "internalType": "address",
                  "name": "joiner",
                  "type": "address"
                },
                {
                  "internalType": "uint256",
                  "name": "ts",
                  "type": "uint256"
                },
                {
                  "internalType": "uint256",
                  "name": "amount",
                  "type": "uint256"
                },
                {
                  "internalType": "string",
                  "name": "comment",
                  "type": "string"
                }
              ],
              "internalType": "struct JoinRecord[]",
              "name": "joinRecords",
              "type": "tuple[]"
            }
          ],
          "internalType": "struct Activity[]",
          "name": "",
          "type": "tuple[]"
        }
      ],
      "stateMutability": "view",
      "type": "function"
    },
    {
      "inputs": [
        {
          "internalType": "uint256",
          "name": "id",
          "type": "uint256"
        },
        {
          "internalType": "string",
          "name": "comment",
          "type": "string"
        }
      ],
      "name": "readerJoin",
      "outputs": [],
      "stateMutability": "payable",
      "type": "function"
    },
    {
      "inputs": [
        {
          "internalType": "uint256",
          "name": "id",
          "type": "uint256"
        }
      ],
      "name": "authorWithdraw",
      "outputs": [],
      "stateMutability": "nonpayable",
      "type": "function"
    },
    {
      "inputs": [
        {
          "internalType": "uint256",
          "name": "id",
          "type": "uint256"
        }
      ],
      "name": "readerWithdraw",
      "outputs": [],
      "stateMutability": "nonpayable",
      "type": "function"
    },
    {
      "inputs": [],
      "name": "myRecords",
      "outputs": [
        {
          "components": [
            {
              "internalType": "uint256",
              "name": "id",
              "type": "uint256"
            },
            {
              "internalType": "uint256",
              "name": "activityID",
              "type": "uint256"
            },
            {
              "internalType": "address",
              "name": "joiner",
              "type": "address"
            },
            {
              "internalType": "uint256",
              "name": "ts",
              "type": "uint256"
            },
            {
              "internalType": "uint256",
              "name": "amount",
              "type": "uint256"
            },
            {
              "internalType": "string",
              "name": "comment",
              "type": "string"
            }
          ],
          "internalType": "struct JoinRecord[]",
          "name": "",
          "type": "tuple[]"
        },
        {
          "internalType": "uint256[]",
          "name": "",
          "type": "uint256[]"
        }
      ],
      "stateMutability": "view",
      "type": "function"
    }
  ],
  "bytecode": "0x6080604052600060015534801561001557600080fd5b50336000806101000a81548173ffffffffffffffffffffffffffffffffffffffff021916908373ffffffffffffffffffffffffffffffffffffffff160217905550612d01806100656000396000f3fe6080604052600436106100c25760003560e01c80638ab0f3331161007f57806393c6d5fe1161005957806393c6d5fe1461028c5780639bcfed01146102b7578063a6c3e6b9146102e0578063de5db6421461030b576100c2565b80638ab0f333146101fb5780638c58afa414610224578063922635d81461024f576100c2565b80630712e320146100c75780630d1657e8146101045780634531fdc514610148578063570eabc8146101715780636be7e5fe1461019d578063788d3636146101b9575b600080fd5b3480156100d357600080fd5b506100ee60048036038101906100e991906119bf565b610348565b6040516100fb9190611a0e565b60405180910390f35b34801561011057600080fd5b5061012b60048036038101906101269190611a29565b610379565b60405161013f989796959493929190611b10565b60405180910390f35b34801561015457600080fd5b5061016f600480360381019061016a9190611cca565b610476565b005b34801561017d57600080fd5b506101866105d1565b604051610194929190611f9b565b60405180910390f35b6101b760048036038101906101b29190611fd2565b610815565b005b3480156101c557600080fd5b506101e060048036038101906101db91906119bf565b610b7f565b6040516101f29695949392919061202e565b60405180910390f35b34801561020757600080fd5b50610222600480360381019061021d9190611a29565b610c80565b005b34801561023057600080fd5b50610239610f94565b6040516102469190611a0e565b60405180910390f35b34801561025b57600080fd5b5061027660048036038101906102719190611a29565b610f9a565b60405161028391906121f7565b60405180910390f35b34801561029857600080fd5b506102a161126c565b6040516102ae9190612219565b60405180910390f35b3480156102c357600080fd5b506102de60048036038101906102d99190611a29565b611311565b005b3480156102ec57600080fd5b506102f5611510565b604051610302919061223b565b60405180910390f35b34801561031757600080fd5b50610332600480360381019061032d919061231e565b611534565b60405161033f91906124f5565b60405180910390f35b6004602052816000526040600020818154811061036457600080fd5b90600052602060002001600091509150505481565b60026020528060005260406000206000915090508060000154908060010160009054906101000a900473ffffffffffffffffffffffffffffffffffffffff16908060020180546103c890612546565b80601f01602080910402602001604051908101604052809291908181526020018280546103f490612546565b80156104415780601f1061041657610100808354040283529160200191610441565b820191906000526020600020905b81548152906001019060200180831161042457829003601f168201915b5050505050908060030154908060040154908060050154908060060160009054906101000a900460ff16908060070154905088565b60016000815480929190610489906125a6565b9190505550600060026000600154815260200190815260200160002090506001548160000181905550338160010160006101000a81548173ffffffffffffffffffffffffffffffffffffffff021916908373ffffffffffffffffffffffffffffffffffffffff16021790555081816002019081610506919061279a565b50838160030181905550600081600401819055506201518083610529919061286c565b4261053491906128ae565b816005018190555060008160060160006101000a81548160ff02191690831515021790555060008160070181905550600460003373ffffffffffffffffffffffffffffffffffffffff1673ffffffffffffffffffffffffffffffffffffffff168152602001908152602001600020600154908060018154018082558091505060019003906000526020600020016000909190919091505550505050565b606080600360003373ffffffffffffffffffffffffffffffffffffffff1673ffffffffffffffffffffffffffffffffffffffff168152602001908152602001600020600460003373ffffffffffffffffffffffffffffffffffffffff1673ffffffffffffffffffffffffffffffffffffffff16815260200190815260200160002081805480602002602001604051908101604052809291908181526020016000905b828210156107b557838290600052602060002090600602016040518060c001604052908160008201548152602001600182015481526020016002820160009054906101000a900473ffffffffffffffffffffffffffffffffffffffff1673ffffffffffffffffffffffffffffffffffffffff1673ffffffffffffffffffffffffffffffffffffffff168152602001600382015481526020016004820154815260200160058201805461072490612546565b80601f016020809104026020016040519081016040528092919081815260200182805461075090612546565b801561079d5780601f106107725761010080835404028352916020019161079d565b820191906000526020600020905b81548152906001019060200180831161078057829003601f168201915b50505050508152505081526020019060010190610673565b5050505091508080548060200260200160405190810160405280929190818152602001828054801561080657602002820191906000526020600020905b8154815260200190600101908083116107f2575b50505050509050915091509091565b60006002600084815260200190815260200160002090506000816000015403610873576040517f08c379a000000000000000000000000000000000000000000000000000000000815260040161086a9061292e565b60405180910390fd5b600015158160060160009054906101000a900460ff161515146108cb576040517f08c379a00000000000000000000000000000000000000000000000000000000081526004016108c29061299a565b60405180910390fd5b42816005015411610911576040517f08c379a000000000000000000000000000000000000000000000000000000000815260040161090890612a06565b60405180910390fd5b60003411610954576040517f08c379a000000000000000000000000000000000000000000000000000000000815260040161094b90612a72565b60405180910390fd5b806007016000815480929190610969906125a6565b919050555060006040518060c00160405280836007015481526020018581526020013373ffffffffffffffffffffffffffffffffffffffff16815260200142815260200134815260200184815250905081600801819080600181540180825580915050600190039060005260206000209060060201600090919091909150600082015181600001556020820151816001015560408201518160020160006101000a81548173ffffffffffffffffffffffffffffffffffffffff021916908373ffffffffffffffffffffffffffffffffffffffff160217905550606082015181600301556080820151816004015560a0820151816005019081610a6b919061279a565b50505034826004016000828254610a8291906128ae565b92505081905550600360003373ffffffffffffffffffffffffffffffffffffffff1673ffffffffffffffffffffffffffffffffffffffff168152602001908152602001600020819080600181540180825580915050600190039060005260206000209060060201600090919091909150600082015181600001556020820151816001015560408201518160020160006101000a81548173ffffffffffffffffffffffffffffffffffffffff021916908373ffffffffffffffffffffffffffffffffffffffff160217905550606082015181600301556080820151816004015560a0820151816005019081610b76919061279a565b50505050505050565b60036020528160005260406000208181548110610b9b57600080fd5b9060005260206000209060060201600091509150508060000154908060010154908060020160009054906101000a900473ffffffffffffffffffffffffffffffffffffffff1690806003015490806004015490806005018054610bfd90612546565b80601f0160208091040260200160405190810160405280929190818152602001828054610c2990612546565b8015610c765780601f10610c4b57610100808354040283529160200191610c76565b820191906000526020600020905b815481529060010190602001808311610c5957829003601f168201915b5050505050905086565b60006002600083815260200190815260200160002090506000816000015403610cde576040517f08c379a0000000000000000000000000000000000000000000000000000000008152600401610cd59061292e565b60405180910390fd5b600015158160060160009054906101000a900460ff16151514610d36576040517f08c379a0000000000000000000000000000000000000000000000000000000008152600401610d2d9061299a565b60405180910390fd5b42816005015410610d7c576040517f08c379a0000000000000000000000000000000000000000000000000000000008152600401610d7390612ade565b60405180910390fd5b6000805b8260080180549050811015610ee9573373ffffffffffffffffffffffffffffffffffffffff16836008018281548110610dbc57610dbb612afe565b5b906000526020600020906006020160020160009054906101000a900473ffffffffffffffffffffffffffffffffffffffff1673ffffffffffffffffffffffffffffffffffffffff1603610ed657826008018181548110610e1f57610e1e612afe565b5b90600052602060002090600602016004015482610e3c91906128ae565b91506000836008018281548110610e5657610e55612afe565b5b9060005260206000209060060201600401819055506040518060400160405280600f81526020017f7265616465722077697468647261770000000000000000000000000000000000815250836008018281548110610eb757610eb6612afe565b5b90600052602060002090600602016005019081610ed4919061279a565b505b8080610ee1906125a6565b915050610d80565b5060008111610f2d576040517f08c379a0000000000000000000000000000000000000000000000000000000008152600401610f2490612b79565b60405180910390fd5b80826004016000828254610f419190612b99565b925050819055503373ffffffffffffffffffffffffffffffffffffffff166108fc829081150290604051600060405180830381858888f19350505050158015610f8e573d6000803e3d6000fd5b50505050565b60015481565b610fa26118b3565b6002600083815260200190815260200160002060405180610120016040529081600082015481526020016001820160009054906101000a900473ffffffffffffffffffffffffffffffffffffffff1673ffffffffffffffffffffffffffffffffffffffff1673ffffffffffffffffffffffffffffffffffffffff16815260200160028201805461103190612546565b80601f016020809104026020016040519081016040528092919081815260200182805461105d90612546565b80156110aa5780601f1061107f576101008083540402835291602001916110aa565b820191906000526020600020905b81548152906001019060200180831161108d57829003601f168201915b505050505081526020016003820154815260200160048201548152602001600582015481526020016006820160009054906101000a900460ff161515151581526020016007820154815260200160088201805480602002602001604051908101604052809291908181526020016000905b8282101561125d57838290600052602060002090600602016040518060c001604052908160008201548152602001600182015481526020016002820160009054906101000a900473ffffffffffffffffffffffffffffffffffffffff1673ffffffffffffffffffffffffffffffffffffffff1673ffffffffffffffffffffffffffffffffffffffff16815260200160038201548152602001600482015481526020016005820180546111cc90612546565b80601f01602080910402602001604051908101604052809291908181526020018280546111f890612546565b80156112455780601f1061121a57610100808354040283529160200191611245565b820191906000526020600020905b81548152906001019060200180831161122857829003601f168201915b5050505050815250508152602001906001019061111b565b50505050815250509050919050565b6060600060015467ffffffffffffffff81111561128c5761128b611b9f565b5b6040519080825280602002602001820160405280156112ba5781602001602082028036833780820191505090505b50905060005b600154811015611309576001816112d791906128ae565b8282815181106112ea576112e9612afe565b5b6020026020010181815250508080611301906125a6565b9150506112c0565b508091505090565b6000600260008381526020019081526020016000209050600081600001540361136f576040517f08c379a00000000000000000000000000000000000000000000000000000000081526004016113669061292e565b60405180910390fd5b600015158160060160009054906101000a900460ff161515146113c7576040517f08c379a00000000000000000000000000000000000000000000000000000000081526004016113be9061299a565b60405180910390fd5b3373ffffffffffffffffffffffffffffffffffffffff168160010160009054906101000a900473ffffffffffffffffffffffffffffffffffffffff1673ffffffffffffffffffffffffffffffffffffffff1614611459576040517f08c379a000000000000000000000000000000000000000000000000000000000815260040161145090612c19565b60405180910390fd5b8060030154816004015410156114a4576040517f08c379a000000000000000000000000000000000000000000000000000000000815260040161149b90612cab565b60405180910390fd5b60018160060160006101000a81548160ff0219169083151502179055503373ffffffffffffffffffffffffffffffffffffffff166108fc82600401549081150290604051600060405180830381858888f1935050505015801561150b573d6000803e3d6000fd5b505050565b60008054906101000a900473ffffffffffffffffffffffffffffffffffffffff1681565b60606000825167ffffffffffffffff81111561155357611552611b9f565b5b60405190808252806020026020018201604052801561158c57816020015b6115796118b3565b8152602001906001900390816115715790505b50905060005b83518110156118a957600260008583815181106115b2576115b1612afe565b5b6020026020010151815260200190815260200160002060405180610120016040529081600082015481526020016001820160009054906101000a900473ffffffffffffffffffffffffffffffffffffffff1673ffffffffffffffffffffffffffffffffffffffff1673ffffffffffffffffffffffffffffffffffffffff16815260200160028201805461164490612546565b80601f016020809104026020016040519081016040528092919081815260200182805461167090612546565b80156116bd5780601f10611692576101008083540402835291602001916116bd565b820191906000526020600020905b8154815290600101906020018083116116a057829003601f168201915b505050505081526020016003820154815260200160048201548152602001600582015481526020016006820160009054906101000a900460ff161515151581526020016007820154815260200160088201805480602002602001604051908101604052809291908181526020016000905b8282101561187057838290600052602060002090600602016040518060c001604052908160008201548152602001600182015481526020016002820160009054906101000a900473ffffffffffffffffffffffffffffffffffffffff1673ffffffffffffffffffffffffffffffffffffffff1673ffffffffffffffffffffffffffffffffffffffff16815260200160038201548152602001600482015481526020016005820180546117df90612546565b80601f016020809104026020016040519081016040528092919081815260200182805461180b90612546565b80156118585780601f1061182d57610100808354040283529160200191611858565b820191906000526020600020905b81548152906001019060200180831161183b57829003601f168201915b5050505050815250508152602001906001019061172e565b505050508152505082828151811061188b5761188a612afe565b5b602002602001018190525080806118a1906125a6565b915050611592565b5080915050919050565b60405180610120016040528060008152602001600073ffffffffffffffffffffffffffffffffffffffff1681526020016060815260200160008152602001600081526020016000815260200160001515815260200160008152602001606081525090565b6000604051905090565b600080fd5b600080fd5b600073ffffffffffffffffffffffffffffffffffffffff82169050919050565b60006119568261192b565b9050919050565b6119668161194b565b811461197157600080fd5b50565b6000813590506119838161195d565b92915050565b6000819050919050565b61199c81611989565b81146119a757600080fd5b50565b6000813590506119b981611993565b92915050565b600080604083850312156119d6576119d5611921565b5b60006119e485828601611974565b92505060206119f5858286016119aa565b9150509250929050565b611a0881611989565b82525050565b6000602082019050611a2360008301846119ff565b92915050565b600060208284031215611a3f57611a3e611921565b5b6000611a4d848285016119aa565b91505092915050565b611a5f8161194b565b82525050565b600081519050919050565b600082825260208201905092915050565b60005b83811015611a9f578082015181840152602081019050611a84565b60008484015250505050565b6000601f19601f8301169050919050565b6000611ac782611a65565b611ad18185611a70565b9350611ae1818560208601611a81565b611aea81611aab565b840191505092915050565b60008115159050919050565b611b0a81611af5565b82525050565b600061010082019050611b26600083018b6119ff565b611b33602083018a611a56565b8181036040830152611b458189611abc565b9050611b5460608301886119ff565b611b6160808301876119ff565b611b6e60a08301866119ff565b611b7b60c0830185611b01565b611b8860e08301846119ff565b9998505050505050505050565b600080fd5b600080fd5b7f4e487b7100000000000000000000000000000000000000000000000000000000600052604160045260246000fd5b611bd782611aab565b810181811067ffffffffffffffff82111715611bf657611bf5611b9f565b5b80604052505050565b6000611c09611917565b9050611c158282611bce565b919050565b600067ffffffffffffffff821115611c3557611c34611b9f565b5b611c3e82611aab565b9050602081019050919050565b82818337600083830152505050565b6000611c6d611c6884611c1a565b611bff565b905082815260208101848484011115611c8957611c88611b9a565b5b611c94848285611c4b565b509392505050565b600082601f830112611cb157611cb0611b95565b5b8135611cc1848260208601611c5a565b91505092915050565b600080600060608486031215611ce357611ce2611921565b5b6000611cf1868287016119aa565b9350506020611d02868287016119aa565b925050604084013567ffffffffffffffff811115611d2357611d22611926565b5b611d2f86828701611c9c565b9150509250925092565b600081519050919050565b600082825260208201905092915050565b6000819050602082019050919050565b611d6e81611989565b82525050565b611d7d8161194b565b82525050565b600082825260208201905092915050565b6000611d9f82611a65565b611da98185611d83565b9350611db9818560208601611a81565b611dc281611aab565b840191505092915050565b600060c083016000830151611de56000860182611d65565b506020830151611df86020860182611d65565b506040830151611e0b6040860182611d74565b506060830151611e1e6060860182611d65565b506080830151611e316080860182611d65565b5060a083015184820360a0860152611e498282611d94565b9150508091505092915050565b6000611e628383611dcd565b905092915050565b6000602082019050919050565b6000611e8282611d39565b611e8c8185611d44565b935083602082028501611e9e85611d55565b8060005b85811015611eda5784840389528151611ebb8582611e56565b9450611ec683611e6a565b925060208a01995050600181019050611ea2565b50829750879550505050505092915050565b600081519050919050565b600082825260208201905092915050565b6000819050602082019050919050565b6000611f248383611d65565b60208301905092915050565b6000602082019050919050565b6000611f4882611eec565b611f528185611ef7565b9350611f5d83611f08565b8060005b83811015611f8e578151611f758882611f18565b9750611f8083611f30565b925050600181019050611f61565b5085935050505092915050565b60006040820190508181036000830152611fb58185611e77565b90508181036020830152611fc98184611f3d565b90509392505050565b60008060408385031215611fe957611fe8611921565b5b6000611ff7858286016119aa565b925050602083013567ffffffffffffffff81111561201857612017611926565b5b61202485828601611c9c565b9150509250929050565b600060c08201905061204360008301896119ff565b61205060208301886119ff565b61205d6040830187611a56565b61206a60608301866119ff565b61207760808301856119ff565b81810360a08301526120898184611abc565b9050979650505050505050565b61209f81611af5565b82525050565b600082825260208201905092915050565b60006120c182611d39565b6120cb81856120a5565b9350836020820285016120dd85611d55565b8060005b8581101561211957848403895281516120fa8582611e56565b945061210583611e6a565b925060208a019950506001810190506120e1565b50829750879550505050505092915050565b6000610120830160008301516121446000860182611d65565b5060208301516121576020860182611d74565b506040830151848203604086015261216f8282611d94565b91505060608301516121846060860182611d65565b5060808301516121976080860182611d65565b5060a08301516121aa60a0860182611d65565b5060c08301516121bd60c0860182612096565b5060e08301516121d060e0860182611d65565b506101008301518482036101008601526121ea82826120b6565b9150508091505092915050565b60006020820190508181036000830152612211818461212b565b905092915050565b600060208201905081810360008301526122338184611f3d565b905092915050565b60006020820190506122506000830184611a56565b92915050565b600067ffffffffffffffff82111561227157612270611b9f565b5b602082029050602081019050919050565b600080fd5b600061229a61229584612256565b611bff565b905080838252602082019050602084028301858111156122bd576122bc612282565b5b835b818110156122e657806122d288826119aa565b8452602084019350506020810190506122bf565b5050509392505050565b600082601f83011261230557612304611b95565b5b8135612315848260208601612287565b91505092915050565b60006020828403121561233457612333611921565b5b600082013567ffffffffffffffff81111561235257612351611926565b5b61235e848285016122f0565b91505092915050565b600081519050919050565b600082825260208201905092915050565b6000819050602082019050919050565b6000610120830160008301516123ac6000860182611d65565b5060208301516123bf6020860182611d74565b50604083015184820360408601526123d78282611d94565b91505060608301516123ec6060860182611d65565b5060808301516123ff6080860182611d65565b5060a083015161241260a0860182611d65565b5060c083015161242560c0860182612096565b5060e083015161243860e0860182611d65565b5061010083015184820361010086015261245282826120b6565b9150508091505092915050565b600061246b8383612393565b905092915050565b6000602082019050919050565b600061248b82612367565b6124958185612372565b9350836020820285016124a785612383565b8060005b858110156124e357848403895281516124c4858261245f565b94506124cf83612473565b925060208a019950506001810190506124ab565b50829750879550505050505092915050565b6000602082019050818103600083015261250f8184612480565b905092915050565b7f4e487b7100000000000000000000000000000000000000000000000000000000600052602260045260246000fd5b6000600282049050600182168061255e57607f821691505b60208210810361257157612570612517565b5b50919050565b7f4e487b7100000000000000000000000000000000000000000000000000000000600052601160045260246000fd5b60006125b182611989565b91507fffffffffffffffffffffffffffffffffffffffffffffffffffffffffffffffff82036125e3576125e2612577565b5b600182019050919050565b60008190508160005260206000209050919050565b60006020601f8301049050919050565b600082821b905092915050565b6000600883026126507fffffffffffffffffffffffffffffffffffffffffffffffffffffffffffffffff82612613565b61265a8683612613565b95508019841693508086168417925050509392505050565b6000819050919050565b600061269761269261268d84611989565b612672565b611989565b9050919050565b6000819050919050565b6126b18361267c565b6126c56126bd8261269e565b848454612620565b825550505050565b600090565b6126da6126cd565b6126e58184846126a8565b505050565b5b81811015612709576126fe6000826126d2565b6001810190506126eb565b5050565b601f82111561274e5761271f816125ee565b61272884612603565b81016020851015612737578190505b61274b61274385612603565b8301826126ea565b50505b505050565b600082821c905092915050565b600061277160001984600802612753565b1980831691505092915050565b600061278a8383612760565b9150826002028217905092915050565b6127a382611a65565b67ffffffffffffffff8111156127bc576127bb611b9f565b5b6127c68254612546565b6127d182828561270d565b600060209050601f83116001811461280457600084156127f2578287015190505b6127fc858261277e565b865550612864565b601f198416612812866125ee565b60005b8281101561283a57848901518255600182019150602085019450602081019050612815565b868310156128575784890151612853601f891682612760565b8355505b6001600288020188555050505b505050505050565b600061287782611989565b915061288283611989565b925082820261289081611989565b915082820484148315176128a7576128a6612577565b5b5092915050565b60006128b982611989565b91506128c483611989565b92508282019050808211156128dc576128db612577565b5b92915050565b7f61206163746976697479206e6f74206578697374000000000000000000000000600082015250565b6000612918601483611a70565b9150612923826128e2565b602082019050919050565b600060208201905081810360008301526129478161290b565b9050919050565b7f6120616374697669747920697320636c6f736564000000000000000000000000600082015250565b6000612984601483611a70565b915061298f8261294e565b602082019050919050565b600060208201905081810360008301526129b381612977565b9050919050565b7f6120616374697669747920697320657870697265640000000000000000000000600082015250565b60006129f0601583611a70565b91506129fb826129ba565b602082019050919050565b60006020820190508181036000830152612a1f816129e3565b9050919050565b7f61206163746976697479206e656564206d6f6e65790000000000000000000000600082015250565b6000612a5c601583611a70565b9150612a6782612a26565b602082019050919050565b60006020820190508181036000830152612a8b81612a4f565b9050919050565b7f61206163746976697479206973206e6f74206578706972656400000000000000600082015250565b6000612ac8601983611a70565b9150612ad382612a92565b602082019050919050565b60006020820190508181036000830152612af781612abb565b9050919050565b7f4e487b7100000000000000000000000000000000000000000000000000000000600052603260045260246000fd5b7f61206163746976697479206973206e6f74206a6f696e00000000000000000000600082015250565b6000612b63601683611a70565b9150612b6e82612b2d565b602082019050919050565b60006020820190508181036000830152612b9281612b56565b9050919050565b6000612ba482611989565b9150612baf83611989565b9250828203905081811115612bc757612bc6612577565b5b92915050565b7f61206163746976697479206973206e6f7420617574686f720000000000000000600082015250565b6000612c03601883611a70565b9150612c0e82612bcd565b602082019050919050565b60006020820190508181036000830152612c3281612bf6565b9050919050565b7f61206163746976697479206973206e6f7420726561636820746172676574206d60008201527f6f6e657900000000000000000000000000000000000000000000000000000000602082015250565b6000612c95602483611a70565b9150612ca082612c39565b604082019050919050565b60006020820190508181036000830152612cc481612c88565b905091905056fea2646970667358221220f8f6554d8ee2a988362907a6d773b4697009570b20c483fdd9294413b8325e0f64736f6c63430008110033",
  "immutableReferences": {},
  "source": "// SPDX-License-Identifier: GPL-3.0\n\npragma solidity >=0.7.0 <0.9.0;\n\ninterface ICrowdfunding3 {\n    // \n    function createActivity(uint targetMoney, uint dayNum, string memory data) external;\n    // ID\n    function getActivitieIDs() external view returns (uint[] memory);\n    // \n    function getActivity(uint id) external view returns (Activity memory);\n    // \n    function getActivities(uint[] memory ids) external view returns (Activity[] memory);\n    // \n    function join(uint id, string memory comment) external payable;\n    // \n    function authorWithdraw() external;\n    // \n    function readerWithdraw() external;\n    // \n    function myRecords() external view returns (JoinRecord[] memory, uint[] memory);\n}\n\nstruct Activity {\n    uint id;\n    address beneficiary;      // , \n    string data;              // hash\n    uint targetMoney;         // , wei\n    uint currentMoney;        // , wei\n    uint endTime;             // \n    bool closed;              // \n    uint joinRecordID;        // id  \n    JoinRecord[] joinRecords; // \n}\n\n// \nstruct JoinRecord {\n    uint id;\n    uint activityID;     // id\n    address joiner; // \n    uint ts;        // \n    uint amount;    // \n    string comment; // \n}\n\ncontract Crowdfunding3 {\n    // \n    address public author;\n\n    // \n    // activityID => \n    uint public activityID = 0;\n    mapping(uint => Activity) public activities;\n\n    // \n    mapping(address => JoinRecord[]) public personalJoinRecords;\n\n    // \n    mapping(address => uint[]) public personalActivitieRecords;\n\n    constructor() {\n        author = msg.sender;\n    }\n\n    // \n    function createActivity(uint targetMoney, uint dayNum, string memory data) external {\n        activityID++;\n        Activity storage activity = activities[activityID];\n        activity.id = activityID;\n        activity.beneficiary = msg.sender;\n        activity.data = data;\n        activity.targetMoney = targetMoney;\n        activity.currentMoney = 0;\n        activity.endTime = block.timestamp + dayNum * 1 days;\n        activity.closed = false;\n        activity.joinRecordID = 0;\n\n        // \n        personalActivitieRecords[msg.sender].push(activityID);\n    }\n\n    // ID\n    function getActivitieIDs() external view returns (uint[] memory) {\n        uint[] memory ids = new uint[](activityID);\n        for (uint i = 0; i < activityID; i++) {\n            ids[i] = i + 1;\n        }\n        return ids;\n    }\n\n    // \n    function getActivity(uint id) external view returns (Activity memory) {\n        return activities[id];\n    }\n\n    // \n    function getActivities(uint[] memory ids) external view returns (Activity[] memory) {\n        Activity[] memory ret = new Activity[](ids.length);\n        for (uint i = 0; i < ids.length; i++) {\n            ret[i] = activities[ids[i]];\n        }\n        return ret;\n    }\n\n    // \n    function readerJoin(uint id, string memory comment) external payable {\n        Activity storage activity = activities[id];\n        require(activity.id != 0, \"a activity not exist\");                     // \n        require(activity.closed == false, \"a activity is closed\");             //  \n        require(activity.endTime > block.timestamp, \"a activity is expired\");  // \n        require(msg.value > 0, \"a activity need money\");                       // 0\n        // require(msg.sender != activity.beneficiary, \"a activity is author\");   // \n\n        // \n        activity.joinRecordID++;\n        JoinRecord memory record = JoinRecord({\n            id: activity.joinRecordID,\n            activityID: id,\n            joiner: msg.sender,\n            ts: block.timestamp,\n            amount: msg.value,\n            comment: comment\n        });\n        activity.joinRecords.push(record);\n        activity.currentMoney += msg.value;\n\n        // \n        personalJoinRecords[msg.sender].push(record);\n    }\n\n    // \n    function authorWithdraw(uint id) external {\n        Activity storage activity = activities[id];\n        require(activity.id != 0, \"a activity not exist\");                                                // \n        require(activity.closed == false, \"a activity is closed\");                                        // \n        // require(activity.endTime < block.timestamp, \"a activity is not expired\");                      // \n\n        require(activity.beneficiary == msg.sender, \"a activity is not author\");                          // \n        require(activity.currentMoney >= activity.targetMoney, \"a activity is not reach target money\");   // \n\n        activity.closed = true;\n        payable(msg.sender).transfer(activity.currentMoney);\n    }\n\n    // \n    function readerWithdraw(uint id) external {\n        Activity storage activity = activities[id];\n        require(activity.id != 0, \"a activity not exist\");                          // \n        require(activity.closed == false, \"a activity is closed\");                  // \n        require(activity.endTime < block.timestamp, \"a activity is not expired\");   // \n        uint sum = 0;\n        for (uint i = 0; i < activity.joinRecords.length; i++) {\n            if (activity.joinRecords[i].joiner == msg.sender) {\n                sum += activity.joinRecords[i].amount;\n                activity.joinRecords[i].amount = 0;                                 // \n                activity.joinRecords[i].comment = \"reader withdraw\";\n            }\n        }\n        require(sum > 0, \"a activity is not join\");\n        activity.currentMoney -= sum;\n        payable(msg.sender).transfer(sum);\n    }\n    \n    // \n    function myRecords() external view returns (JoinRecord[] memory, uint[] memory) {\n        return (personalJoinRecords[msg.sender], personalActivitieRecords[msg.sender]);\n    }\n}\n\n",
  "sourcePath": "/root/workspace/work2/cf_eth/contracts/Crowdfunding3.sol",
  "compiler": {
    "name": "solc",
    "version": "0.8.17+commit.8df45f5f.Emscripten.clang"
  },
  "schemaVersion": "3.4.11",
  "updatedAt": "2023-01-08T04:19:44.276Z",
  "devdoc": {
    "kind": "dev",
    "methods": {},
    "version": 1
  },
  "userdoc": {
    "kind": "user",
    "methods": {},
    "version": 1
  }
}