{
  "contractName": "Crowdfunding3",
  "abi": [
    {
      "inputs": [],
      "stateMutability": "nonpayable",
      "type": "constructor"
    },
    {
      "inputs": [
        {
          "internalType": "uint256",
          "name": "",
          "type": "uint256"
        }
      ],
      "name": "activities",
      "outputs": [
        {
          "internalType": "uint256",
          "name": "id",
          "type": "uint256"
        },
        {
          "internalType": "address",
          "name": "beneficiary",
          "type": "address"
        },
        {
          "internalType": "string",
          "name": "data",
          "type": "string"
        },
        {
          "internalType": "uint256",
          "name": "targetMoney",
          "type": "uint256"
        },
        {
          "internalType": "uint256",
          "name": "currentMoney",
          "type": "uint256"
        },
        {
          "internalType": "uint256",
          "name": "endTime",
          "type": "uint256"
        },
        {
          "internalType": "bool",
          "name": "closed",
          "type": "bool"
        },
        {
          "internalType": "uint256",
          "name": "joinRecordID",
          "type": "uint256"
        }
      ],
      "stateMutability": "view",
      "type": "function"
    },
    {
      "inputs": [],
      "name": "activityID",
      "outputs": [
        {
          "internalType": "uint256",
          "name": "",
          "type": "uint256"
        }
      ],
      "stateMutability": "view",
      "type": "function"
    },
    {
      "inputs": [],
      "name": "author",
      "outputs": [
        {
          "internalType": "address",
          "name": "",
          "type": "address"
        }
      ],
      "stateMutability": "view",
      "type": "function"
    },
    {
      "inputs": [
        {
          "internalType": "address",
          "name": "",
          "type": "address"
        },
        {
          "internalType": "uint256",
          "name": "",
          "type": "uint256"
        }
      ],
      "name": "personalActivitieRecords",
      "outputs": [
        {
          "internalType": "uint256",
          "name": "",
          "type": "uint256"
        }
      ],
      "stateMutability": "view",
      "type": "function"
    },
    {
      "inputs": [
        {
          "internalType": "address",
          "name": "",
          "type": "address"
        },
        {
          "internalType": "uint256",
          "name": "",
          "type": "uint256"
        }
      ],
      "name": "personalJoinRecords",
      "outputs": [
        {
          "internalType": "uint256",
          "name": "id",
          "type": "uint256"
        },
        {
          "internalType": "uint256",
          "name": "activityID",
          "type": "uint256"
        },
        {
          "internalType": "address",
          "name": "joiner",
          "type": "address"
        },
        {
          "internalType": "uint256",
          "name": "ts",
          "type": "uint256"
        },
        {
          "internalType": "uint256",
          "name": "amount",
          "type": "uint256"
        },
        {
          "internalType": "string",
          "name": "comment",
          "type": "string"
        }
      ],
      "stateMutability": "view",
      "type": "function"
    },
    {
      "inputs": [
        {
          "internalType": "uint256",
          "name": "targetMoney",
          "type": "uint256"
        },
        {
          "internalType": "uint256",
          "name": "dayNum",
          "type": "uint256"
        },
        {
          "internalType": "string",
          "name": "data",
          "type": "string"
        }
      ],
      "name": "createActivity",
      "outputs": [],
      "stateMutability": "nonpayable",
      "type": "function"
    },
    {
      "inputs": [],
      "name": "getActivitieIDs",
      "outputs": [
        {
          "internalType": "uint256[]",
          "name": "",
          "type": "uint256[]"
        }
      ],
      "stateMutability": "view",
      "type": "function"
    },
    {
      "inputs": [
        {
          "internalType": "uint256",
          "name": "id",
          "type": "uint256"
        }
      ],
      "name": "getActivity",
      "outputs": [
        {
          "components": [
            {
              "internalType": "uint256",
              "name": "id",
              "type": "uint256"
            },
            {
              "internalType": "address",
              "name": "beneficiary",
              "type": "address"
            },
            {
              "internalType": "string",
              "name": "data",
              "type": "string"
            },
            {
              "internalType": "uint256",
              "name": "targetMoney",
              "type": "uint256"
            },
            {
              "internalType": "uint256",
              "name": "currentMoney",
              "type": "uint256"
            },
            {
              "internalType": "uint256",
              "name": "endTime",
              "type": "uint256"
            },
            {
              "internalType": "bool",
              "name": "closed",
              "type": "bool"
            },
            {
              "internalType": "uint256",
              "name": "joinRecordID",
              "type": "uint256"
            },
            {
              "components": [
                {
                  "internalType": "uint256",
                  "name": "id",
                  "type": "uint256"
                },
                {
                  "internalType": "uint256",
                  "name": "activityID",
                  "type": "uint256"
                },
                {
                  "internalType": "address",
                  "name": "joiner",
                  "type": "address"
                },
                {
                  "internalType": "uint256",
                  "name": "ts",
                  "type": "uint256"
                },
                {
                  "internalType": "uint256",
                  "name": "amount",
                  "type": "uint256"
                },
                {
                  "internalType": "string",
                  "name": "comment",
                  "type": "string"
                }
              ],
              "internalType": "struct JoinRecord[]",
              "name": "joinRecords",
              "type": "tuple[]"
            }
          ],
          "internalType": "struct Activity",
          "name": "",
          "type": "tuple"
        }
      ],
      "stateMutability": "view",
      "type": "function"
    },
    {
      "inputs": [
        {
          "internalType": "uint256[]",
          "name": "ids",
          "type": "uint256[]"
        }
      ],
      "name": "getActivities",
      "outputs": [
        {
          "components": [
            {
              "internalType": "uint256",
              "name": "id",
              "type": "uint256"
            },
            {
              "internalType": "address",
              "name": "beneficiary",
              "type": "address"
            },
            {
              "internalType": "string",
              "name": "data",
              "type": "string"
            },
            {
              "internalType": "uint256",
              "name": "targetMoney",
              "type": "uint256"
            },
            {
              "internalType": "uint256",
              "name": "currentMoney",
              "type": "uint256"
            },
            {
              "internalType": "uint256",
              "name": "endTime",
              "type": "uint256"
            },
            {
              "internalType": "bool",
              "name": "closed",
              "type": "bool"
            },
            {
              "internalType": "uint256",
              "name": "joinRecordID",
              "type": "uint256"
            },
            {
              "components": [
                {
                  "internalType": "uint256",
                  "name": "id",
                  "type": "uint256"
                },
                {
                  "internalType": "uint256",
                  "name": "activityID",
                  "type": "uint256"
                },
                {
                  "internalType": "address",
                  "name": "joiner",
                  "type": "address"
                },
                {
                  "internalType": "uint256",
                  "name": "ts",
                  "type": "uint256"
                },
                {
                  "internalType": "uint256",
                  "name": "amount",
                  "type": "uint256"
                },
                {
                  "internalType": "string",
                  "name": "comment",
                  "type": "string"
                }
              ],
              "internalType": "struct JoinRecord[]",
              "name": "joinRecords",
              "type": "tuple[]"
            }
          ],
          "internalType": "struct Activity[]",
          "name": "",
          "type": "tuple[]"
        }
      ],
      "stateMutability": "view",
      "type": "function"
    },
    {
      "inputs": [
        {
          "internalType": "uint256",
          "name": "id",
          "type": "uint256"
        },
        {
          "internalType": "string",
          "name": "comment",
          "type": "string"
        }
      ],
      "name": "readerJoin",
      "outputs": [],
      "stateMutability": "payable",
      "type": "function"
    },
    {
      "inputs": [
        {
          "internalType": "uint256",
          "name": "id",
          "type": "uint256"
        }
      ],
      "name": "authorWithdraw",
      "outputs": [],
      "stateMutability": "nonpayable",
      "type": "function"
    },
    {
      "inputs": [
        {
          "internalType": "uint256",
          "name": "aid",
          "type": "uint256"
        },
        {
          "internalType": "uint256",
          "name": "rID",
          "type": "uint256"
        }
      ],
      "name": "readerWithdraw",
      "outputs": [],
      "stateMutability": "nonpayable",
      "type": "function"
    },
    {
      "inputs": [],
      "name": "myRecords",
      "outputs": [
        {
          "components": [
            {
              "internalType": "uint256",
              "name": "id",
              "type": "uint256"
            },
            {
              "internalType": "uint256",
              "name": "activityID",
              "type": "uint256"
            },
            {
              "internalType": "address",
              "name": "joiner",
              "type": "address"
            },
            {
              "internalType": "uint256",
              "name": "ts",
              "type": "uint256"
            },
            {
              "internalType": "uint256",
              "name": "amount",
              "type": "uint256"
            },
            {
              "internalType": "string",
              "name": "comment",
              "type": "string"
            }
          ],
          "internalType": "struct JoinRecord[]",
          "name": "",
          "type": "tuple[]"
        },
        {
          "internalType": "uint256[]",
          "name": "",
          "type": "uint256[]"
        }
      ],
      "stateMutability": "view",
      "type": "function"
    }
  ],
  "bytecode": "0x6080604052600060015534801561001557600080fd5b50336000806101000a81548173ffffffffffffffffffffffffffffffffffffffff021916908373ffffffffffffffffffffffffffffffffffffffff160217905550612dd9806100656000396000f3fe6080604052600436106100c25760003560e01c80638c58afa41161007f5780639bcfed01116100595780639bcfed011461028e578063a6c3e6b9146102b7578063c2006289146102e2578063de5db6421461030b576100c2565b80638c58afa4146101fb578063922635d81461022657806393c6d5fe14610263576100c2565b80630712e320146100c75780630d1657e8146101045780634531fdc514610148578063570eabc8146101715780636be7e5fe1461019d578063788d3636146101b9575b600080fd5b3480156100d357600080fd5b506100ee60048036038101906100e9919061197f565b610348565b6040516100fb91906119ce565b60405180910390f35b34801561011057600080fd5b5061012b600480360381019061012691906119e9565b610379565b60405161013f989796959493929190611ad0565b60405180910390f35b34801561015457600080fd5b5061016f600480360381019061016a9190611c8a565b610476565b005b34801561017d57600080fd5b506101866105d1565b604051610194929190611f5b565b60405180910390f35b6101b760048036038101906101b29190611f92565b610815565b005b3480156101c557600080fd5b506101e060048036038101906101db919061197f565b610b7f565b6040516101f296959493929190611fee565b60405180910390f35b34801561020757600080fd5b50610210610c80565b60405161021d91906119ce565b60405180910390f35b34801561023257600080fd5b5061024d600480360381019061024891906119e9565b610c86565b60405161025a91906121b7565b60405180910390f35b34801561026f57600080fd5b50610278610f58565b60405161028591906121d9565b60405180910390f35b34801561029a57600080fd5b506102b560048036038101906102b091906119e9565b610ffd565b005b3480156102c357600080fd5b506102cc6111fc565b6040516102d991906121fb565b60405180910390f35b3480156102ee57600080fd5b5061030960048036038101906103049190612216565b611220565b005b34801561031757600080fd5b50610332600480360381019061032d919061231e565b6114f4565b60405161033f91906124f5565b60405180910390f35b6004602052816000526040600020818154811061036457600080fd5b90600052602060002001600091509150505481565b60026020528060005260406000206000915090508060000154908060010160009054906101000a900473ffffffffffffffffffffffffffffffffffffffff16908060020180546103c890612546565b80601f01602080910402602001604051908101604052809291908181526020018280546103f490612546565b80156104415780601f1061041657610100808354040283529160200191610441565b820191906000526020600020905b81548152906001019060200180831161042457829003601f168201915b5050505050908060030154908060040154908060050154908060060160009054906101000a900460ff16908060070154905088565b60016000815480929190610489906125a6565b9190505550600060026000600154815260200190815260200160002090506001548160000181905550338160010160006101000a81548173ffffffffffffffffffffffffffffffffffffffff021916908373ffffffffffffffffffffffffffffffffffffffff16021790555081816002019081610506919061279a565b50838160030181905550600081600401819055506201518083610529919061286c565b4261053491906128ae565b816005018190555060008160060160006101000a81548160ff02191690831515021790555060008160070181905550600460003373ffffffffffffffffffffffffffffffffffffffff1673ffffffffffffffffffffffffffffffffffffffff168152602001908152602001600020600154908060018154018082558091505060019003906000526020600020016000909190919091505550505050565b606080600360003373ffffffffffffffffffffffffffffffffffffffff1673ffffffffffffffffffffffffffffffffffffffff168152602001908152602001600020600460003373ffffffffffffffffffffffffffffffffffffffff1673ffffffffffffffffffffffffffffffffffffffff16815260200190815260200160002081805480602002602001604051908101604052809291908181526020016000905b828210156107b557838290600052602060002090600602016040518060c001604052908160008201548152602001600182015481526020016002820160009054906101000a900473ffffffffffffffffffffffffffffffffffffffff1673ffffffffffffffffffffffffffffffffffffffff1673ffffffffffffffffffffffffffffffffffffffff168152602001600382015481526020016004820154815260200160058201805461072490612546565b80601f016020809104026020016040519081016040528092919081815260200182805461075090612546565b801561079d5780601f106107725761010080835404028352916020019161079d565b820191906000526020600020905b81548152906001019060200180831161078057829003601f168201915b50505050508152505081526020019060010190610673565b5050505091508080548060200260200160405190810160405280929190818152602001828054801561080657602002820191906000526020600020905b8154815260200190600101908083116107f2575b50505050509050915091509091565b60006002600084815260200190815260200160002090506000816000015403610873576040517f08c379a000000000000000000000000000000000000000000000000000000000815260040161086a9061292e565b60405180910390fd5b600015158160060160009054906101000a900460ff161515146108cb576040517f08c379a00000000000000000000000000000000000000000000000000000000081526004016108c29061299a565b60405180910390fd5b42816005015411610911576040517f08c379a000000000000000000000000000000000000000000000000000000000815260040161090890612a06565b60405180910390fd5b60003411610954576040517f08c379a000000000000000000000000000000000000000000000000000000000815260040161094b90612a72565b60405180910390fd5b806007016000815480929190610969906125a6565b919050555060006040518060c00160405280836007015481526020018581526020013373ffffffffffffffffffffffffffffffffffffffff16815260200142815260200134815260200184815250905081600801819080600181540180825580915050600190039060005260206000209060060201600090919091909150600082015181600001556020820151816001015560408201518160020160006101000a81548173ffffffffffffffffffffffffffffffffffffffff021916908373ffffffffffffffffffffffffffffffffffffffff160217905550606082015181600301556080820151816004015560a0820151816005019081610a6b919061279a565b50505034826004016000828254610a8291906128ae565b92505081905550600360003373ffffffffffffffffffffffffffffffffffffffff1673ffffffffffffffffffffffffffffffffffffffff168152602001908152602001600020819080600181540180825580915050600190039060005260206000209060060201600090919091909150600082015181600001556020820151816001015560408201518160020160006101000a81548173ffffffffffffffffffffffffffffffffffffffff021916908373ffffffffffffffffffffffffffffffffffffffff160217905550606082015181600301556080820151816004015560a0820151816005019081610b76919061279a565b50505050505050565b60036020528160005260406000208181548110610b9b57600080fd5b9060005260206000209060060201600091509150508060000154908060010154908060020160009054906101000a900473ffffffffffffffffffffffffffffffffffffffff1690806003015490806004015490806005018054610bfd90612546565b80601f0160208091040260200160405190810160405280929190818152602001828054610c2990612546565b8015610c765780601f10610c4b57610100808354040283529160200191610c76565b820191906000526020600020905b815481529060010190602001808311610c5957829003601f168201915b5050505050905086565b60015481565b610c8e611873565b6002600083815260200190815260200160002060405180610120016040529081600082015481526020016001820160009054906101000a900473ffffffffffffffffffffffffffffffffffffffff1673ffffffffffffffffffffffffffffffffffffffff1673ffffffffffffffffffffffffffffffffffffffff168152602001600282018054610d1d90612546565b80601f0160208091040260200160405190810160405280929190818152602001828054610d4990612546565b8015610d965780601f10610d6b57610100808354040283529160200191610d96565b820191906000526020600020905b815481529060010190602001808311610d7957829003601f168201915b505050505081526020016003820154815260200160048201548152602001600582015481526020016006820160009054906101000a900460ff161515151581526020016007820154815260200160088201805480602002602001604051908101604052809291908181526020016000905b82821015610f4957838290600052602060002090600602016040518060c001604052908160008201548152602001600182015481526020016002820160009054906101000a900473ffffffffffffffffffffffffffffffffffffffff1673ffffffffffffffffffffffffffffffffffffffff1673ffffffffffffffffffffffffffffffffffffffff1681526020016003820154815260200160048201548152602001600582018054610eb890612546565b80601f0160208091040260200160405190810160405280929190818152602001828054610ee490612546565b8015610f315780601f10610f0657610100808354040283529160200191610f31565b820191906000526020600020905b815481529060010190602001808311610f1457829003601f168201915b50505050508152505081526020019060010190610e07565b50505050815250509050919050565b6060600060015467ffffffffffffffff811115610f7857610f77611b5f565b5b604051908082528060200260200182016040528015610fa65781602001602082028036833780820191505090505b50905060005b600154811015610ff557600181610fc391906128ae565b828281518110610fd657610fd5612a92565b5b6020026020010181815250508080610fed906125a6565b915050610fac565b508091505090565b6000600260008381526020019081526020016000209050600081600001540361105b576040517f08c379a00000000000000000000000000000000000000000000000000000000081526004016110529061292e565b60405180910390fd5b600015158160060160009054906101000a900460ff161515146110b3576040517f08c379a00000000000000000000000000000000000000000000000000000000081526004016110aa9061299a565b60405180910390fd5b3373ffffffffffffffffffffffffffffffffffffffff168160010160009054906101000a900473ffffffffffffffffffffffffffffffffffffffff1673ffffffffffffffffffffffffffffffffffffffff1614611145576040517f08c379a000000000000000000000000000000000000000000000000000000000815260040161113c90612b0d565b60405180910390fd5b806003015481600401541015611190576040517f08c379a000000000000000000000000000000000000000000000000000000000815260040161118790612b9f565b60405180910390fd5b60018160060160006101000a81548160ff0219169083151502179055503373ffffffffffffffffffffffffffffffffffffffff166108fc82600401549081150290604051600060405180830381858888f193505050501580156111f7573d6000803e3d6000fd5b505050565b60008054906101000a900473ffffffffffffffffffffffffffffffffffffffff1681565b6000600260008481526020019081526020016000209050600081600001540361127e576040517f08c379a00000000000000000000000000000000000000000000000000000000081526004016112759061292e565b60405180910390fd5b600015158160060160009054906101000a900460ff161515146112d6576040517f08c379a00000000000000000000000000000000000000000000000000000000081526004016112cd9061299a565b60405180910390fd5b4281600501541061131c576040517f08c379a000000000000000000000000000000000000000000000000000000000815260040161131390612c0b565b60405180910390fd5b600060018361132b9190612c2b565b905081600801805490508110611376576040517f08c379a000000000000000000000000000000000000000000000000000000000815260040161136d90612cab565b60405180910390fd5b600082600801828154811061138e5761138d612a92565b5b906000526020600020906006020190503373ffffffffffffffffffffffffffffffffffffffff168160020160009054906101000a900473ffffffffffffffffffffffffffffffffffffffff1673ffffffffffffffffffffffffffffffffffffffff1614611430576040517f08c379a000000000000000000000000000000000000000000000000000000000815260040161142790612d17565b60405180910390fd5b6000816004015411611477576040517f08c379a000000000000000000000000000000000000000000000000000000000815260040161146e90612d83565b60405180910390fd5b600081600401549050600082600401819055508084600401600082825461149e9190612c2b565b925050819055503373ffffffffffffffffffffffffffffffffffffffff166108fc829081150290604051600060405180830381858888f193505050501580156114eb573d6000803e3d6000fd5b50505050505050565b60606000825167ffffffffffffffff81111561151357611512611b5f565b5b60405190808252806020026020018201604052801561154c57816020015b611539611873565b8152602001906001900390816115315790505b50905060005b8351811015611869576002600085838151811061157257611571612a92565b5b6020026020010151815260200190815260200160002060405180610120016040529081600082015481526020016001820160009054906101000a900473ffffffffffffffffffffffffffffffffffffffff1673ffffffffffffffffffffffffffffffffffffffff1673ffffffffffffffffffffffffffffffffffffffff16815260200160028201805461160490612546565b80601f016020809104026020016040519081016040528092919081815260200182805461163090612546565b801561167d5780601f106116525761010080835404028352916020019161167d565b820191906000526020600020905b81548152906001019060200180831161166057829003601f168201915b505050505081526020016003820154815260200160048201548152602001600582015481526020016006820160009054906101000a900460ff161515151581526020016007820154815260200160088201805480602002602001604051908101604052809291908181526020016000905b8282101561183057838290600052602060002090600602016040518060c001604052908160008201548152602001600182015481526020016002820160009054906101000a900473ffffffffffffffffffffffffffffffffffffffff1673ffffffffffffffffffffffffffffffffffffffff1673ffffffffffffffffffffffffffffffffffffffff168152602001600382015481526020016004820154815260200160058201805461179f90612546565b80601f01602080910402602001604051908101604052809291908181526020018280546117cb90612546565b80156118185780601f106117ed57610100808354040283529160200191611818565b820191906000526020600020905b8154815290600101906020018083116117fb57829003601f168201915b505050505081525050815260200190600101906116ee565b505050508152505082828151811061184b5761184a612a92565b5b60200260200101819052508080611861906125a6565b915050611552565b5080915050919050565b60405180610120016040528060008152602001600073ffffffffffffffffffffffffffffffffffffffff1681526020016060815260200160008152602001600081526020016000815260200160001515815260200160008152602001606081525090565b6000604051905090565b600080fd5b600080fd5b600073ffffffffffffffffffffffffffffffffffffffff82169050919050565b6000611916826118eb565b9050919050565b6119268161190b565b811461193157600080fd5b50565b6000813590506119438161191d565b92915050565b6000819050919050565b61195c81611949565b811461196757600080fd5b50565b60008135905061197981611953565b92915050565b60008060408385031215611996576119956118e1565b5b60006119a485828601611934565b92505060206119b58582860161196a565b9150509250929050565b6119c881611949565b82525050565b60006020820190506119e360008301846119bf565b92915050565b6000602082840312156119ff576119fe6118e1565b5b6000611a0d8482850161196a565b91505092915050565b611a1f8161190b565b82525050565b600081519050919050565b600082825260208201905092915050565b60005b83811015611a5f578082015181840152602081019050611a44565b60008484015250505050565b6000601f19601f8301169050919050565b6000611a8782611a25565b611a918185611a30565b9350611aa1818560208601611a41565b611aaa81611a6b565b840191505092915050565b60008115159050919050565b611aca81611ab5565b82525050565b600061010082019050611ae6600083018b6119bf565b611af3602083018a611a16565b8181036040830152611b058189611a7c565b9050611b1460608301886119bf565b611b2160808301876119bf565b611b2e60a08301866119bf565b611b3b60c0830185611ac1565b611b4860e08301846119bf565b9998505050505050505050565b600080fd5b600080fd5b7f4e487b7100000000000000000000000000000000000000000000000000000000600052604160045260246000fd5b611b9782611a6b565b810181811067ffffffffffffffff82111715611bb657611bb5611b5f565b5b80604052505050565b6000611bc96118d7565b9050611bd58282611b8e565b919050565b600067ffffffffffffffff821115611bf557611bf4611b5f565b5b611bfe82611a6b565b9050602081019050919050565b82818337600083830152505050565b6000611c2d611c2884611bda565b611bbf565b905082815260208101848484011115611c4957611c48611b5a565b5b611c54848285611c0b565b509392505050565b600082601f830112611c7157611c70611b55565b5b8135611c81848260208601611c1a565b91505092915050565b600080600060608486031215611ca357611ca26118e1565b5b6000611cb18682870161196a565b9350506020611cc28682870161196a565b925050604084013567ffffffffffffffff811115611ce357611ce26118e6565b5b611cef86828701611c5c565b9150509250925092565b600081519050919050565b600082825260208201905092915050565b6000819050602082019050919050565b611d2e81611949565b82525050565b611d3d8161190b565b82525050565b600082825260208201905092915050565b6000611d5f82611a25565b611d698185611d43565b9350611d79818560208601611a41565b611d8281611a6b565b840191505092915050565b600060c083016000830151611da56000860182611d25565b506020830151611db86020860182611d25565b506040830151611dcb6040860182611d34565b506060830151611dde6060860182611d25565b506080830151611df16080860182611d25565b5060a083015184820360a0860152611e098282611d54565b9150508091505092915050565b6000611e228383611d8d565b905092915050565b6000602082019050919050565b6000611e4282611cf9565b611e4c8185611d04565b935083602082028501611e5e85611d15565b8060005b85811015611e9a5784840389528151611e7b8582611e16565b9450611e8683611e2a565b925060208a01995050600181019050611e62565b50829750879550505050505092915050565b600081519050919050565b600082825260208201905092915050565b6000819050602082019050919050565b6000611ee48383611d25565b60208301905092915050565b6000602082019050919050565b6000611f0882611eac565b611f128185611eb7565b9350611f1d83611ec8565b8060005b83811015611f4e578151611f358882611ed8565b9750611f4083611ef0565b925050600181019050611f21565b5085935050505092915050565b60006040820190508181036000830152611f758185611e37565b90508181036020830152611f898184611efd565b90509392505050565b60008060408385031215611fa957611fa86118e1565b5b6000611fb78582860161196a565b925050602083013567ffffffffffffffff811115611fd857611fd76118e6565b5b611fe485828601611c5c565b9150509250929050565b600060c08201905061200360008301896119bf565b61201060208301886119bf565b61201d6040830187611a16565b61202a60608301866119bf565b61203760808301856119bf565b81810360a08301526120498184611a7c565b9050979650505050505050565b61205f81611ab5565b82525050565b600082825260208201905092915050565b600061208182611cf9565b61208b8185612065565b93508360208202850161209d85611d15565b8060005b858110156120d957848403895281516120ba8582611e16565b94506120c583611e2a565b925060208a019950506001810190506120a1565b50829750879550505050505092915050565b6000610120830160008301516121046000860182611d25565b5060208301516121176020860182611d34565b506040830151848203604086015261212f8282611d54565b91505060608301516121446060860182611d25565b5060808301516121576080860182611d25565b5060a083015161216a60a0860182611d25565b5060c083015161217d60c0860182612056565b5060e083015161219060e0860182611d25565b506101008301518482036101008601526121aa8282612076565b9150508091505092915050565b600060208201905081810360008301526121d181846120eb565b905092915050565b600060208201905081810360008301526121f38184611efd565b905092915050565b60006020820190506122106000830184611a16565b92915050565b6000806040838503121561222d5761222c6118e1565b5b600061223b8582860161196a565b925050602061224c8582860161196a565b9150509250929050565b600067ffffffffffffffff82111561227157612270611b5f565b5b602082029050602081019050919050565b600080fd5b600061229a61229584612256565b611bbf565b905080838252602082019050602084028301858111156122bd576122bc612282565b5b835b818110156122e657806122d2888261196a565b8452602084019350506020810190506122bf565b5050509392505050565b600082601f83011261230557612304611b55565b5b8135612315848260208601612287565b91505092915050565b600060208284031215612334576123336118e1565b5b600082013567ffffffffffffffff811115612352576123516118e6565b5b61235e848285016122f0565b91505092915050565b600081519050919050565b600082825260208201905092915050565b6000819050602082019050919050565b6000610120830160008301516123ac6000860182611d25565b5060208301516123bf6020860182611d34565b50604083015184820360408601526123d78282611d54565b91505060608301516123ec6060860182611d25565b5060808301516123ff6080860182611d25565b5060a083015161241260a0860182611d25565b5060c083015161242560c0860182612056565b5060e083015161243860e0860182611d25565b506101008301518482036101008601526124528282612076565b9150508091505092915050565b600061246b8383612393565b905092915050565b6000602082019050919050565b600061248b82612367565b6124958185612372565b9350836020820285016124a785612383565b8060005b858110156124e357848403895281516124c4858261245f565b94506124cf83612473565b925060208a019950506001810190506124ab565b50829750879550505050505092915050565b6000602082019050818103600083015261250f8184612480565b905092915050565b7f4e487b7100000000000000000000000000000000000000000000000000000000600052602260045260246000fd5b6000600282049050600182168061255e57607f821691505b60208210810361257157612570612517565b5b50919050565b7f4e487b7100000000000000000000000000000000000000000000000000000000600052601160045260246000fd5b60006125b182611949565b91507fffffffffffffffffffffffffffffffffffffffffffffffffffffffffffffffff82036125e3576125e2612577565b5b600182019050919050565b60008190508160005260206000209050919050565b60006020601f8301049050919050565b600082821b905092915050565b6000600883026126507fffffffffffffffffffffffffffffffffffffffffffffffffffffffffffffffff82612613565b61265a8683612613565b95508019841693508086168417925050509392505050565b6000819050919050565b600061269761269261268d84611949565b612672565b611949565b9050919050565b6000819050919050565b6126b18361267c565b6126c56126bd8261269e565b848454612620565b825550505050565b600090565b6126da6126cd565b6126e58184846126a8565b505050565b5b81811015612709576126fe6000826126d2565b6001810190506126eb565b5050565b601f82111561274e5761271f816125ee565b61272884612603565b81016020851015612737578190505b61274b61274385612603565b8301826126ea565b50505b505050565b600082821c905092915050565b600061277160001984600802612753565b1980831691505092915050565b600061278a8383612760565b9150826002028217905092915050565b6127a382611a25565b67ffffffffffffffff8111156127bc576127bb611b5f565b5b6127c68254612546565b6127d182828561270d565b600060209050601f83116001811461280457600084156127f2578287015190505b6127fc858261277e565b865550612864565b601f198416612812866125ee565b60005b8281101561283a57848901518255600182019150602085019450602081019050612815565b868310156128575784890151612853601f891682612760565b8355505b6001600288020188555050505b505050505050565b600061287782611949565b915061288283611949565b925082820261289081611949565b915082820484148315176128a7576128a6612577565b5b5092915050565b60006128b982611949565b91506128c483611949565b92508282019050808211156128dc576128db612577565b5b92915050565b7f61206163746976697479206e6f74206578697374000000000000000000000000600082015250565b6000612918601483611a30565b9150612923826128e2565b602082019050919050565b600060208201905081810360008301526129478161290b565b9050919050565b7f6120616374697669747920697320636c6f736564000000000000000000000000600082015250565b6000612984601483611a30565b915061298f8261294e565b602082019050919050565b600060208201905081810360008301526129b381612977565b9050919050565b7f6120616374697669747920697320657870697265640000000000000000000000600082015250565b60006129f0601583611a30565b91506129fb826129ba565b602082019050919050565b60006020820190508181036000830152612a1f816129e3565b9050919050565b7f61206163746976697479206e656564206d6f6e65790000000000000000000000600082015250565b6000612a5c601583611a30565b9150612a6782612a26565b602082019050919050565b60006020820190508181036000830152612a8b81612a4f565b9050919050565b7f4e487b7100000000000000000000000000000000000000000000000000000000600052603260045260246000fd5b7f61206163746976697479206973206e6f7420617574686f720000000000000000600082015250565b6000612af7601883611a30565b9150612b0282612ac1565b602082019050919050565b60006020820190508181036000830152612b2681612aea565b9050919050565b7f61206163746976697479206973206e6f7420726561636820746172676574206d60008201527f6f6e657900000000000000000000000000000000000000000000000000000000602082015250565b6000612b89602483611a30565b9150612b9482612b2d565b604082019050919050565b60006020820190508181036000830152612bb881612b7c565b9050919050565b7f61206163746976697479206973206e6f74206578706972656400000000000000600082015250565b6000612bf5601983611a30565b9150612c0082612bbf565b602082019050919050565b60006020820190508181036000830152612c2481612be8565b9050919050565b6000612c3682611949565b9150612c4183611949565b9250828203905081811115612c5957612c58612577565b5b92915050565b7f61207265636f7264206e6f742065786973740000000000000000000000000000600082015250565b6000612c95601283611a30565b9150612ca082612c5f565b602082019050919050565b60006020820190508181036000830152612cc481612c88565b9050919050565b7f61207265636f7264206973206e6f742072656164657200000000000000000000600082015250565b6000612d01601683611a30565b9150612d0c82612ccb565b602082019050919050565b60006020820190508181036000830152612d3081612cf4565b9050919050565b7f61207265636f7264206973207769746864726177656400000000000000000000600082015250565b6000612d6d601683611a30565b9150612d7882612d37565b602082019050919050565b60006020820190508181036000830152612d9c81612d60565b905091905056fea26469706673582212208da80b7083e01294496d8be196f4e7d0a0cc18f6068cb16c1f0d2e82fbc4deaa64736f6c63430008110033",
  "immutableReferences": {},
  "source": "// SPDX-License-Identifier: GPL-3.0\n\npragma solidity >=0.7.0 <0.9.0;\n\ninterface ICrowdfunding3 {\n    // \n    function createActivity(uint targetMoney, uint dayNum, string memory data) external;\n    // ID\n    function getActivitieIDs() external view returns (uint[] memory);\n    // \n    function getActivity(uint id) external view returns (Activity memory);\n    // \n    function getActivities(uint[] memory ids) external view returns (Activity[] memory);\n    // \n    function readerJoin(uint id, string memory comment) external payable;\n    // \n    function authorWithdraw(uint id) external;\n    // \n    function readerWithdraw(uint aid, uint rID) external;\n    // \n    function myRecords() external view returns (JoinRecord[] memory, uint[] memory);\n}\n\nstruct Activity {\n    uint id;\n    address beneficiary;      // , \n    string data;              // hash\n    uint targetMoney;         // , wei\n    uint currentMoney;        // , wei\n    uint endTime;             // \n    bool closed;              // \n    uint joinRecordID;        // id  \n    JoinRecord[] joinRecords; // \n}\n\n// \nstruct JoinRecord {\n    uint id;\n    uint activityID;     // id\n    address joiner; // \n    uint ts;        // \n    uint amount;    // \n    string comment; // \n}\n\ncontract Crowdfunding3 {\n    // \n    address public author;\n\n    // \n    // activityID => \n    uint public activityID = 0;\n    mapping(uint => Activity) public activities;\n\n    // \n    mapping(address => JoinRecord[]) public personalJoinRecords;\n\n    // \n    mapping(address => uint[]) public personalActivitieRecords;\n\n    constructor() {\n        author = msg.sender;\n    }\n\n    // \n    function createActivity(uint targetMoney, uint dayNum, string memory data) external {\n        activityID++;\n        Activity storage activity = activities[activityID];\n        activity.id = activityID;\n        activity.beneficiary = msg.sender;\n        activity.data = data;\n        activity.targetMoney = targetMoney;\n        activity.currentMoney = 0;\n        activity.endTime = block.timestamp + dayNum * 1 days;\n        activity.closed = false;\n        activity.joinRecordID = 0;\n\n        // \n        personalActivitieRecords[msg.sender].push(activityID);\n    }\n\n    // ID\n    function getActivitieIDs() external view returns (uint[] memory) {\n        uint[] memory ids = new uint[](activityID);\n        for (uint i = 0; i < activityID; i++) {\n            ids[i] = i + 1;\n        }\n        return ids;\n    }\n\n    // \n    function getActivity(uint id) external view returns (Activity memory) {\n        return activities[id];\n    }\n\n    // \n    function getActivities(uint[] memory ids) external view returns (Activity[] memory) {\n        Activity[] memory ret = new Activity[](ids.length);\n        for (uint i = 0; i < ids.length; i++) {\n            ret[i] = activities[ids[i]];\n        }\n        return ret;\n    }\n\n    // \n    function readerJoin(uint id, string memory comment) external payable {\n        Activity storage activity = activities[id];\n        require(activity.id != 0, \"a activity not exist\");                     // \n        require(activity.closed == false, \"a activity is closed\");             //  \n        require(activity.endTime > block.timestamp, \"a activity is expired\");  // \n        require(msg.value > 0, \"a activity need money\");                       // 0\n        // require(msg.sender != activity.beneficiary, \"a activity is author\");   // \n\n        // \n        activity.joinRecordID++;\n        JoinRecord memory record = JoinRecord({\n            id: activity.joinRecordID,\n            activityID: id,\n            joiner: msg.sender,\n            ts: block.timestamp,\n            amount: msg.value,\n            comment: comment\n        });\n        activity.joinRecords.push(record);\n        activity.currentMoney += msg.value;\n\n        // \n        personalJoinRecords[msg.sender].push(record);\n    }\n\n    // \n    function authorWithdraw(uint id) external {\n        Activity storage activity = activities[id];\n        require(activity.id != 0, \"a activity not exist\");                                                // \n        require(activity.closed == false, \"a activity is closed\");                                        // \n        // require(activity.endTime < block.timestamp, \"a activity is not expired\");                      // \n\n        require(activity.beneficiary == msg.sender, \"a activity is not author\");                          // \n        require(activity.currentMoney >= activity.targetMoney, \"a activity is not reach target money\");   // \n\n        activity.closed = true;\n        payable(msg.sender).transfer(activity.currentMoney);\n    }\n\n    // \n    function readerWithdraw(uint aid, uint rID) external {\n        Activity storage activity = activities[aid];\n        require(activity.id != 0, \"a activity not exist\");                          // \n        require(activity.closed == false, \"a activity is closed\");                  // \n        require(activity.endTime < block.timestamp, \"a activity is not expired\");   // \n        uint rIDx = rID - 1;\n        \n        require(rIDx < activity.joinRecords.length, \"a record not exist\");     //  record \n        JoinRecord storage record = activity.joinRecords[rIDx];\n        \n        require(record.joiner == msg.sender, \"a record is not reader\");             // \n        require(record.amount > 0, \"a record is withdrawed\");                       //  record \n\n        uint amount = record.amount;\n        record.amount = 0;\n        activity.currentMoney -= amount;\n        payable(msg.sender).transfer(amount);\n    }\n    \n    // \n    function myRecords() external view returns (JoinRecord[] memory, uint[] memory) {\n        return (personalJoinRecords[msg.sender], personalActivitieRecords[msg.sender]);\n    }\n}\n\n",
  "sourcePath": "/root/workspace/work2/cf_eth/contracts/Crowdfunding3.sol",
  "compiler": {
    "name": "solc",
    "version": "0.8.17+commit.8df45f5f.Emscripten.clang"
  },
  "schemaVersion": "3.4.11",
  "updatedAt": "2023-01-08T09:45:12.014Z",
  "devdoc": {
    "kind": "dev",
    "methods": {},
    "version": 1
  },
  "userdoc": {
    "kind": "user",
    "methods": {},
    "version": 1
  }
}